{
  "contractName": "RayonToken",
  "abi": [
    {
      "constant": true,
      "inputs": [],
      "name": "mintingFinished",
      "outputs": [
        {
          "name": "",
          "type": "bool"
        }
      ],
      "payable": false,
      "stateMutability": "view",
      "type": "function"
    },
    {
      "constant": true,
      "inputs": [],
      "name": "name",
      "outputs": [
        {
          "name": "",
          "type": "string"
        }
      ],
      "payable": false,
      "stateMutability": "view",
      "type": "function"
    },
    {
      "constant": false,
      "inputs": [
        {
          "name": "_spender",
          "type": "address"
        },
        {
          "name": "_value",
          "type": "uint256"
        }
      ],
      "name": "approve",
      "outputs": [
        {
          "name": "",
          "type": "bool"
        }
      ],
      "payable": false,
      "stateMutability": "nonpayable",
      "type": "function"
    },
    {
      "constant": true,
      "inputs": [],
      "name": "totalSupply",
      "outputs": [
        {
          "name": "",
          "type": "uint256"
        }
      ],
      "payable": false,
      "stateMutability": "view",
      "type": "function"
    },
    {
      "constant": false,
      "inputs": [
        {
          "name": "_from",
          "type": "address"
        },
        {
          "name": "_to",
          "type": "address"
        },
        {
          "name": "_value",
          "type": "uint256"
        }
      ],
      "name": "transferFrom",
      "outputs": [
        {
          "name": "",
          "type": "bool"
        }
      ],
      "payable": false,
      "stateMutability": "nonpayable",
      "type": "function"
    },
    {
      "constant": true,
      "inputs": [],
      "name": "decimals",
      "outputs": [
        {
          "name": "",
          "type": "uint8"
        }
      ],
      "payable": false,
      "stateMutability": "view",
      "type": "function"
    },
    {
      "constant": true,
      "inputs": [],
      "name": "cap",
      "outputs": [
        {
          "name": "",
          "type": "uint256"
        }
      ],
      "payable": false,
      "stateMutability": "view",
      "type": "function"
    },
    {
      "constant": false,
      "inputs": [],
      "name": "unpause",
      "outputs": [],
      "payable": false,
      "stateMutability": "nonpayable",
      "type": "function"
    },
    {
      "constant": false,
      "inputs": [
        {
          "name": "_to",
          "type": "address"
        },
        {
          "name": "_amount",
          "type": "uint256"
        }
      ],
      "name": "mint",
      "outputs": [
        {
          "name": "",
          "type": "bool"
        }
      ],
      "payable": false,
      "stateMutability": "nonpayable",
      "type": "function"
    },
    {
      "constant": false,
      "inputs": [
        {
          "name": "_value",
          "type": "uint256"
        }
      ],
      "name": "burn",
      "outputs": [],
      "payable": false,
      "stateMutability": "nonpayable",
      "type": "function"
    },
    {
      "constant": false,
      "inputs": [],
      "name": "claimOwnership",
      "outputs": [],
      "payable": false,
      "stateMutability": "nonpayable",
      "type": "function"
    },
    {
      "constant": true,
      "inputs": [],
      "name": "paused",
      "outputs": [
        {
          "name": "",
          "type": "bool"
        }
      ],
      "payable": false,
      "stateMutability": "view",
      "type": "function"
    },
    {
      "constant": true,
      "inputs": [
        {
          "name": "_address",
          "type": "address"
        }
      ],
      "name": "isPausedAddress",
      "outputs": [
        {
          "name": "",
          "type": "bool"
        }
      ],
      "payable": false,
      "stateMutability": "view",
      "type": "function"
    },
    {
      "constant": false,
      "inputs": [
        {
          "name": "_spender",
          "type": "address"
        },
        {
          "name": "_subtractedValue",
          "type": "uint256"
        }
      ],
      "name": "decreaseApproval",
      "outputs": [
        {
          "name": "success",
          "type": "bool"
        }
      ],
      "payable": false,
      "stateMutability": "nonpayable",
      "type": "function"
    },
    {
      "constant": true,
      "inputs": [
        {
          "name": "_owner",
          "type": "address"
        }
      ],
      "name": "balanceOf",
      "outputs": [
        {
          "name": "",
          "type": "uint256"
        }
      ],
      "payable": false,
      "stateMutability": "view",
      "type": "function"
    },
    {
      "constant": false,
      "inputs": [],
      "name": "renounceOwnership",
      "outputs": [],
      "payable": false,
      "stateMutability": "nonpayable",
      "type": "function"
    },
    {
      "constant": false,
      "inputs": [
        {
          "name": "_address",
          "type": "address"
        }
      ],
      "name": "pauseAddress",
      "outputs": [],
      "payable": false,
      "stateMutability": "nonpayable",
      "type": "function"
    },
    {
      "constant": false,
      "inputs": [],
      "name": "enableIndividualPause",
      "outputs": [],
      "payable": false,
      "stateMutability": "nonpayable",
      "type": "function"
    },
    {
      "constant": false,
      "inputs": [],
      "name": "finishMinting",
      "outputs": [
        {
          "name": "",
          "type": "bool"
        }
      ],
      "payable": false,
      "stateMutability": "nonpayable",
      "type": "function"
    },
    {
      "constant": false,
      "inputs": [],
      "name": "pause",
      "outputs": [],
      "payable": false,
      "stateMutability": "nonpayable",
      "type": "function"
    },
    {
      "constant": true,
      "inputs": [],
      "name": "owner",
      "outputs": [
        {
          "name": "",
          "type": "address"
        }
      ],
      "payable": false,
      "stateMutability": "view",
      "type": "function"
    },
    {
      "constant": true,
      "inputs": [],
      "name": "symbol",
      "outputs": [
        {
          "name": "",
          "type": "string"
        }
      ],
      "payable": false,
      "stateMutability": "view",
      "type": "function"
    },
    {
      "constant": false,
      "inputs": [],
      "name": "reclaimEther",
      "outputs": [],
      "payable": false,
      "stateMutability": "nonpayable",
      "type": "function"
    },
    {
      "constant": false,
      "inputs": [
        {
          "name": "_to",
          "type": "address"
        },
        {
          "name": "_value",
          "type": "uint256"
        }
      ],
      "name": "transfer",
      "outputs": [
        {
          "name": "",
          "type": "bool"
        }
      ],
      "payable": false,
      "stateMutability": "nonpayable",
      "type": "function"
    },
    {
      "constant": true,
      "inputs": [
        {
          "name": "",
          "type": "address"
        }
      ],
      "name": "pausedAddresses",
      "outputs": [
        {
          "name": "",
          "type": "bool"
        }
      ],
      "payable": false,
      "stateMutability": "view",
      "type": "function"
    },
    {
      "constant": true,
      "inputs": [],
      "name": "individualPauseEnabled",
      "outputs": [
        {
          "name": "",
          "type": "bool"
        }
      ],
      "payable": false,
      "stateMutability": "view",
      "type": "function"
    },
    {
      "constant": false,
      "inputs": [],
      "name": "disableIndividualPause",
      "outputs": [],
      "payable": false,
      "stateMutability": "nonpayable",
      "type": "function"
    },
    {
      "constant": false,
      "inputs": [
        {
          "name": "_spender",
          "type": "address"
        },
        {
          "name": "_addedValue",
          "type": "uint256"
        }
      ],
      "name": "increaseApproval",
      "outputs": [
        {
          "name": "success",
          "type": "bool"
        }
      ],
      "payable": false,
      "stateMutability": "nonpayable",
      "type": "function"
    },
    {
      "constant": true,
      "inputs": [
        {
          "name": "_owner",
          "type": "address"
        },
        {
          "name": "_spender",
          "type": "address"
        }
      ],
      "name": "allowance",
      "outputs": [
        {
          "name": "",
          "type": "uint256"
        }
      ],
      "payable": false,
      "stateMutability": "view",
      "type": "function"
    },
    {
      "constant": true,
      "inputs": [],
      "name": "pendingOwner",
      "outputs": [
        {
          "name": "",
          "type": "address"
        }
      ],
      "payable": false,
      "stateMutability": "view",
      "type": "function"
    },
    {
      "constant": false,
      "inputs": [
        {
          "name": "newOwner",
          "type": "address"
        }
      ],
      "name": "transferOwnership",
      "outputs": [],
      "payable": false,
      "stateMutability": "nonpayable",
      "type": "function"
    },
    {
      "constant": false,
      "inputs": [
        {
          "name": "_address",
          "type": "address"
        }
      ],
      "name": "unpauseAddress",
      "outputs": [],
      "payable": false,
      "stateMutability": "nonpayable",
      "type": "function"
    },
    {
      "inputs": [
        {
          "name": "_cap",
          "type": "uint256"
        }
      ],
      "payable": false,
      "stateMutability": "nonpayable",
      "type": "constructor"
    },
    {
      "payable": false,
      "stateMutability": "nonpayable",
      "type": "fallback"
    },
    {
      "anonymous": false,
      "inputs": [
        {
          "indexed": true,
          "name": "burner",
          "type": "address"
        },
        {
          "indexed": false,
          "name": "value",
          "type": "uint256"
        }
      ],
      "name": "Burn",
      "type": "event"
    },
    {
      "anonymous": false,
      "inputs": [
        {
          "indexed": true,
          "name": "pausedAddress",
          "type": "address"
        }
      ],
      "name": "PauseAddress",
      "type": "event"
    },
    {
      "anonymous": false,
      "inputs": [
        {
          "indexed": true,
          "name": "unpausedAddress",
          "type": "address"
        }
      ],
      "name": "UnpauseAddress",
      "type": "event"
    },
    {
      "anonymous": false,
      "inputs": [],
      "name": "EnableIndividualPause",
      "type": "event"
    },
    {
      "anonymous": false,
      "inputs": [],
      "name": "DisableIndividualPause",
      "type": "event"
    },
    {
      "anonymous": false,
      "inputs": [],
      "name": "Pause",
      "type": "event"
    },
    {
      "anonymous": false,
      "inputs": [],
      "name": "Unpause",
      "type": "event"
    },
    {
      "anonymous": false,
      "inputs": [
        {
          "indexed": true,
          "name": "to",
          "type": "address"
        },
        {
          "indexed": false,
          "name": "amount",
          "type": "uint256"
        }
      ],
      "name": "Mint",
      "type": "event"
    },
    {
      "anonymous": false,
      "inputs": [],
      "name": "MintFinished",
      "type": "event"
    },
    {
      "anonymous": false,
      "inputs": [
        {
          "indexed": true,
          "name": "previousOwner",
          "type": "address"
        }
      ],
      "name": "OwnershipRenounced",
      "type": "event"
    },
    {
      "anonymous": false,
      "inputs": [
        {
          "indexed": true,
          "name": "previousOwner",
          "type": "address"
        },
        {
          "indexed": true,
          "name": "newOwner",
          "type": "address"
        }
      ],
      "name": "OwnershipTransferred",
      "type": "event"
    },
    {
      "anonymous": false,
      "inputs": [
        {
          "indexed": true,
          "name": "owner",
          "type": "address"
        },
        {
          "indexed": true,
          "name": "spender",
          "type": "address"
        },
        {
          "indexed": false,
          "name": "value",
          "type": "uint256"
        }
      ],
      "name": "Approval",
      "type": "event"
    },
    {
      "anonymous": false,
      "inputs": [
        {
          "indexed": true,
          "name": "from",
          "type": "address"
        },
        {
          "indexed": true,
          "name": "to",
          "type": "address"
        },
        {
          "indexed": false,
          "name": "value",
          "type": "uint256"
        }
      ],
      "name": "Transfer",
      "type": "event"
    }
  ],
  "bytecode": "0x6004805460a060020a60ff02191690556006805460ff1990811690915560088054909116905560c0604052600560808190527f5241594f4e00000000000000000000000000000000000000000000000000000060a090815262000066916009919062000112565b506040805180820190915260038082527f52594e00000000000000000000000000000000000000000000000000000000006020909201918252620000ad91600a9162000112565b50600b805460ff19166012179055348015620000c857600080fd5b50604051602080620017be833981016040525160038054600160a060020a03191633179055803415620000fa57600080fd5b600081116200010857600080fd5b60055550620001b7565b828054600181600116156101000203166002900490600052602060002090601f016020900481019282601f106200015557805160ff191683800117855562000185565b8280016001018555821562000185579182015b828111156200018557825182559160200191906001019062000168565b506200019392915062000197565b5090565b620001b491905b808211156200019357600081556001016200019e565b90565b6115f780620001c76000396000f3006080604052600436106101955763ffffffff7c010000000000000000000000000000000000000000000000000000000060003504166305d2035b81146101a457806306fdde03146101cd578063095ea7b31461025757806318160ddd1461027b57806323b872dd146102a2578063313ce567146102cc578063355274ea146102f75780633f4ba83a1461030c57806340c10f191461032357806342966c68146103475780634e71e0c81461035f5780635c975abb1461037457806364efa26d1461038957806366188463146103aa57806370a08231146103ce578063715018a6146103ef57806377df472c146104045780637d0b8ea9146104255780637d64bcb41461043a5780638456cb591461044f5780638da5cb5b1461046457806395d89b41146104955780639f727c27146104aa578063a9059cbb146104bf578063aff15f1b146104e3578063b3a50d5414610504578063cd2861e714610519578063d73dd6231461052e578063dd62ed3e14610552578063e30c397814610579578063f2fde38b1461058e578063f5822027146105af575b3480156101a157600080fd5b50005b3480156101b057600080fd5b506101b96105d0565b604080519115158252519081900360200190f35b3480156101d957600080fd5b506101e26105f1565b6040805160208082528351818301528351919283929083019185019080838360005b8381101561021c578181015183820152602001610204565b50505050905090810190601f1680156102495780820380516001836020036101000a031916815260200191505b509250505060405180910390f35b34801561026357600080fd5b506101b9600160a060020a036004351660243561067f565b34801561028757600080fd5b506102906106f3565b60408051918252519081900360200190f35b3480156102ae57600080fd5b506101b9600160a060020a03600435811690602435166044356106f9565b3480156102d857600080fd5b506102e16107a8565b6040805160ff9092168252519081900360200190f35b34801561030357600080fd5b506102906107b1565b34801561031857600080fd5b506103216107b7565b005b34801561032f57600080fd5b506101b9600160a060020a0360043516602435610814565b34801561035357600080fd5b5061032160043561084a565b34801561036b57600080fd5b50610321610857565b34801561038057600080fd5b506101b96108e1565b34801561039557600080fd5b506101b9600160a060020a03600435166108ea565b3480156103b657600080fd5b506101b9600160a060020a0360043516602435610908565b3480156103da57600080fd5b50610290600160a060020a0360043516610973565b3480156103fb57600080fd5b5061032161098e565b34801561041057600080fd5b50610321600160a060020a03600435166109fc565b34801561043157600080fd5b50610321610a72565b34801561044657600080fd5b506101b9610ad1565b34801561045b57600080fd5b50610321610b77565b34801561047057600080fd5b50610479610bd6565b60408051600160a060020a039092168252519081900360200190f35b3480156104a157600080fd5b506101e2610be5565b3480156104b657600080fd5b50610321610c40565b3480156104cb57600080fd5b506101b9600160a060020a0360043516602435610c91565b3480156104ef57600080fd5b506101b9600160a060020a0360043516610cfc565b34801561051057600080fd5b506101b9610d11565b34801561052557600080fd5b50610321610d1a565b34801561053a57600080fd5b506101b9600160a060020a0360043516602435610d77565b34801561055e57600080fd5b50610290600160a060020a0360043581169060243516610de2565b34801561058557600080fd5b50610479610e0d565b34801561059a57600080fd5b50610321600160a060020a0360043516610e1c565b3480156105bb57600080fd5b50610321600160a060020a0360043516610e62565b60045474010000000000000000000000000000000000000000900460ff1681565b6009805460408051602060026001851615610100026000190190941693909304601f810184900484028201840190925281815292918301828280156106775780601f1061064c57610100808354040283529160200191610677565b820191906000526020600020905b81548152906001019060200180831161065a57829003601f168201915b505050505081565b6008546000903390849060ff1615806106d55750600160a060020a03821660009081526007602052604090205460ff161580156106d55750600160a060020a03811660009081526007602052604090205460ff16155b15156106e057600080fd5b6106ea8585610ed6565b95945050505050565b60015490565b6008546000908490849060ff16158061074f5750600160a060020a03821660009081526007602052604090205460ff1615801561074f5750600160a060020a03811660009081526007602052604090205460ff16155b151561075a57600080fd5b600854339060ff1615806107875750600160a060020a03811660009081526007602052604090205460ff16155b151561079257600080fd5b61079d878787610ef3565b979650505050505050565b600b5460ff1681565b60055481565b600354600160a060020a031633146107ce57600080fd5b60065460ff1615156107df57600080fd5b6006805460ff191690556040517f7805862f689e2f13df9f062ff482ad3ad112aca9e0847911ed832e158c525b3390600090a1565b600060055461082e83600154610f1990919063ffffffff16565b111561083957600080fd5b6108438383610f2c565b9392505050565b6108543382611035565b50565b600454600160a060020a0316331461086e57600080fd5b600454600354604051600160a060020a0392831692909116907f8be0079c531659141344cd1fd0a4f28419497f9722a3daafe3b4186f6b6457e090600090a3600480546003805473ffffffffffffffffffffffffffffffffffffffff19908116600160a060020a03841617909155169055565b60065460ff1681565b600160a060020a031660009081526007602052604090205460ff1690565b6008546000903390849060ff16158061095e5750600160a060020a03821660009081526007602052604090205460ff1615801561095e5750600160a060020a03811660009081526007602052604090205460ff16155b151561096957600080fd5b6106ea8585611124565b600160a060020a031660009081526020819052604090205490565b600354600160a060020a031633146109a557600080fd5b600354604051600160a060020a03909116907ff8df31144d9c2f0f6b59d69b8b98abd5459d07f2742c4df920b25aae33c6482090600090a26003805473ffffffffffffffffffffffffffffffffffffffff19169055565b600354600160a060020a03163314610a1357600080fd5b610a1c816108ea565b15610a2657600080fd5b600160a060020a038116600081815260076020526040808220805460ff19166001179055517f2c234f0e4b23730ddee994b100597b3501d211e763068bb67ec6f167b581c0339190a250565b60085460ff1615610a8257600080fd5b600354600160a060020a03163314610a9957600080fd5b6008805460ff191660011790556040517feb6a1805d1fa9f866a4e60ad18b4a72798cf9bb1eccb9a5796c509b8efb0d09b90600090a1565b600354600090600160a060020a03163314610aeb57600080fd5b60045474010000000000000000000000000000000000000000900460ff1615610b1357600080fd5b6004805474ff00000000000000000000000000000000000000001916740100000000000000000000000000000000000000001790556040517fae5184fba832cb2b1f702aca6117b8d265eaf03ad33eb133f19dde0f5920fa0890600090a150600190565b600354600160a060020a03163314610b8e57600080fd5b60065460ff1615610b9e57600080fd5b6006805460ff191660011790556040517f6985a02210a168e66602d3235cb6db0e70f92b3ba4d376a33c0f3d9434bff62590600090a1565b600354600160a060020a031681565b600a805460408051602060026001851615610100026000190190941693909304601f810184900484028201840190925281815292918301828280156106775780601f1061064c57610100808354040283529160200191610677565b600354600160a060020a03163314610c5757600080fd5b600354604051600160a060020a0390911690303180156108fc02916000818181858888f19350505050158015610854573d6000803e3d6000fd5b6008546000903390849060ff161580610ce75750600160a060020a03821660009081526007602052604090205460ff16158015610ce75750600160a060020a03811660009081526007602052604090205460ff16155b1515610cf257600080fd5b6106ea8585611141565b60076020526000908152604090205460ff1681565b60085460ff1681565b60085460ff161515610d2b57600080fd5b600354600160a060020a03163314610d4257600080fd5b6008805460ff191690556040517fe0e793a90bd9e04387e595d3dec4d4f18e143dd32e04a4fd6128d5c172e71c1490600090a1565b6008546000903390849060ff161580610dcd5750600160a060020a03821660009081526007602052604090205460ff16158015610dcd5750600160a060020a03811660009081526007602052604090205460ff16155b1515610dd857600080fd5b6106ea858561115e565b600160a060020a03918216600090815260026020908152604080832093909416825291909152205490565b600454600160a060020a031681565b600354600160a060020a03163314610e3357600080fd5b6004805473ffffffffffffffffffffffffffffffffffffffff1916600160a060020a0392909216919091179055565b600354600160a060020a03163314610e7957600080fd5b610e82816108ea565b1515610e8d57600080fd5b600160a060020a038116600081815260076020526040808220805460ff19169055517f1c9675abf448d65662454c750944114ecaee8b7d3202fe064b8356fbdcbc51479190a250565b60065460009060ff1615610ee957600080fd5b610843838361117b565b60065460009060ff1615610f0657600080fd5b610f118484846111e1565b949350505050565b81810182811015610f2657fe5b92915050565b600354600090600160a060020a03163314610f4657600080fd5b60045474010000000000000000000000000000000000000000900460ff1615610f6e57600080fd5b600154610f81908363ffffffff610f1916565b600155600160a060020a038316600090815260208190526040902054610fad908363ffffffff610f1916565b600160a060020a03841660008181526020818152604091829020939093558051858152905191927f0f6798a560793a54c3bcfe86a93cde1e73087d944c0ea20544137d412139688592918290030190a2604080518381529051600160a060020a038516916000916000805160206115ac8339815191529181900360200190a350600192915050565b600160a060020a03821660009081526020819052604090205481111561105a57600080fd5b600160a060020a038216600090815260208190526040902054611083908263ffffffff61134416565b600160a060020a0383166000908152602081905260409020556001546110af908263ffffffff61134416565b600155604080518281529051600160a060020a038416917fcc16f5dbb4873280815c1ee09dbd06736cffcc184412cf7a71a0fdb75d397ca5919081900360200190a2604080518281529051600091600160a060020a038516916000805160206115ac8339815191529181900360200190a35050565b60065460009060ff161561113757600080fd5b6108438383611356565b60065460009060ff161561115457600080fd5b6108438383611445565b60065460009060ff161561117157600080fd5b6108438383611512565b336000818152600260209081526040808320600160a060020a038716808552908352818420869055815186815291519394909390927f8c5be1e5ebec7d5bd14f71427d1e84f3dd0314c0f7b2291e5b200ac8c7c3b925928290030190a350600192915050565b600160a060020a03831660009081526020819052604081205482111561120657600080fd5b600160a060020a038416600090815260026020908152604080832033845290915290205482111561123657600080fd5b600160a060020a038316151561124b57600080fd5b600160a060020a038416600090815260208190526040902054611274908363ffffffff61134416565b600160a060020a0380861660009081526020819052604080822093909355908516815220546112a9908363ffffffff610f1916565b600160a060020a038085166000908152602081815260408083209490945591871681526002825282812033825290915220546112eb908363ffffffff61134416565b600160a060020a03808616600081815260026020908152604080832033845282529182902094909455805186815290519287169391926000805160206115ac833981519152929181900390910190a35060019392505050565b60008282111561135057fe5b50900390565b336000908152600260209081526040808320600160a060020a03861684529091528120548083106113aa57336000908152600260209081526040808320600160a060020a03881684529091528120556113df565b6113ba818463ffffffff61134416565b336000908152600260209081526040808320600160a060020a03891684529091529020555b336000818152600260209081526040808320600160a060020a0389168085529083529281902054815190815290519293927f8c5be1e5ebec7d5bd14f71427d1e84f3dd0314c0f7b2291e5b200ac8c7c3b925929181900390910190a35060019392505050565b3360009081526020819052604081205482111561146157600080fd5b600160a060020a038316151561147657600080fd5b33600090815260208190526040902054611496908363ffffffff61134416565b3360009081526020819052604080822092909255600160a060020a038516815220546114c8908363ffffffff610f1916565b600160a060020a038416600081815260208181526040918290209390935580518581529051919233926000805160206115ac8339815191529281900390910190a350600192915050565b336000908152600260209081526040808320600160a060020a0386168452909152812054611546908363ffffffff610f1916565b336000818152600260209081526040808320600160a060020a0389168085529083529281902085905580519485525191937f8c5be1e5ebec7d5bd14f71427d1e84f3dd0314c0f7b2291e5b200ac8c7c3b925929081900390910190a3506001929150505600ddf252ad1be2c89b69c2b068fc378daa952ba7f163c4a11628f55a4df523b3efa165627a7a723058203ddd068b25265453f2ce5adf1663d45dc49e17006aff58157a2adcb92f70be750029",
  "source": "\npragma solidity ^0.4.23;\n\nimport \"openzeppelin-solidity/contracts/ownership/Claimable.sol\";\nimport \"openzeppelin-solidity/contracts/ownership/HasNoEther.sol\";\nimport \"openzeppelin-solidity/contracts/token/ERC20/PausableToken.sol\";\nimport \"openzeppelin-solidity/contracts/token/ERC20/CappedToken.sol\";\nimport \"openzeppelin-solidity/contracts/token/ERC20/BurnableToken.sol\";\nimport \"./token/IndividuallyPausableToken.sol\";\n\ncontract RayonToken is Claimable, HasNoEther, CappedToken, PausableToken, IndividuallyPausableToken, BurnableToken {\n    string public name = \"RAYON\";\n    string public symbol = \"RYN\";\n    uint8 public decimals = 18;\n    constructor(\n        // for CappedToken\n        uint256 _cap\n    )\n        public\n        CappedToken(_cap)\n    {}\n}",
  "sourcePath": "/Users/home/Desktop/rayon/rayonprotocol-ico/contracts/RayonToken.sol",
  "compiler": {
    "name": "solc",
    "version": "0.4.24+commit.e67f0147.Emscripten.clang"
  },
  "schemaVersion": "2.0.0",
  "updatedAt": "2018-10-24T03:56:50.374Z"
}