{
  "contractName": "RayonProxy",
  "abi": [
    {
      "constant": true,
      "inputs": [],
      "name": "getVersion",
      "outputs": [
        {
          "name": "",
          "type": "uint16"
        }
      ],
      "payable": false,
      "stateMutability": "view",
      "type": "function"
    },
    {
      "constant": true,
      "inputs": [],
      "name": "getName",
      "outputs": [
        {
          "name": "",
          "type": "string"
        }
      ],
      "payable": false,
      "stateMutability": "view",
      "type": "function"
    },
    {
      "constant": false,
      "inputs": [],
      "name": "kill",
      "outputs": [],
      "payable": false,
      "stateMutability": "nonpayable",
      "type": "function"
    },
    {
      "constant": false,
      "inputs": [],
      "name": "claimOwnership",
      "outputs": [],
      "payable": false,
      "stateMutability": "nonpayable",
      "type": "function"
    },
    {
      "constant": true,
      "inputs": [],
      "name": "isProxy",
      "outputs": [
        {
          "name": "",
          "type": "bool"
        }
      ],
      "payable": false,
      "stateMutability": "view",
      "type": "function"
    },
    {
      "constant": false,
      "inputs": [],
      "name": "renounceOwnership",
      "outputs": [],
      "payable": false,
      "stateMutability": "nonpayable",
      "type": "function"
    },
    {
      "constant": true,
      "inputs": [],
      "name": "owner",
      "outputs": [
        {
          "name": "",
          "type": "address"
        }
      ],
      "payable": false,
      "stateMutability": "view",
      "type": "function"
    },
    {
      "constant": false,
      "inputs": [
        {
          "name": "_contractAddr",
          "type": "address"
        }
      ],
      "name": "claimOwnershipContract",
      "outputs": [],
      "payable": false,
      "stateMutability": "nonpayable",
      "type": "function"
    },
    {
      "constant": false,
      "inputs": [],
      "name": "reclaimEther",
      "outputs": [],
      "payable": false,
      "stateMutability": "nonpayable",
      "type": "function"
    },
    {
      "constant": false,
      "inputs": [
        {
          "name": "_contractAddr",
          "type": "address"
        }
      ],
      "name": "reclaimOwnershipContract",
      "outputs": [],
      "payable": false,
      "stateMutability": "nonpayable",
      "type": "function"
    },
    {
      "constant": true,
      "inputs": [],
      "name": "pendingOwner",
      "outputs": [
        {
          "name": "",
          "type": "address"
        }
      ],
      "payable": false,
      "stateMutability": "view",
      "type": "function"
    },
    {
      "constant": false,
      "inputs": [
        {
          "name": "newOwner",
          "type": "address"
        }
      ],
      "name": "transferOwnership",
      "outputs": [],
      "payable": false,
      "stateMutability": "nonpayable",
      "type": "function"
    },
    {
      "inputs": [
        {
          "name": "_name",
          "type": "string"
        }
      ],
      "payable": false,
      "stateMutability": "nonpayable",
      "type": "constructor"
    },
    {
      "payable": false,
      "stateMutability": "nonpayable",
      "type": "fallback"
    },
    {
      "anonymous": false,
      "inputs": [
        {
          "indexed": true,
          "name": "previousOwner",
          "type": "address"
        }
      ],
      "name": "OwnershipRenounced",
      "type": "event"
    },
    {
      "anonymous": false,
      "inputs": [
        {
          "indexed": true,
          "name": "previousOwner",
          "type": "address"
        },
        {
          "indexed": true,
          "name": "newOwner",
          "type": "address"
        }
      ],
      "name": "OwnershipTransferred",
      "type": "event"
    },
    {
      "constant": true,
      "inputs": [],
      "name": "getTargetAddress",
      "outputs": [
        {
          "name": "",
          "type": "address"
        }
      ],
      "payable": false,
      "stateMutability": "view",
      "type": "function"
    },
    {
      "constant": false,
      "inputs": [
        {
          "name": "_address",
          "type": "address"
        }
      ],
      "name": "setTargetAddress",
      "outputs": [],
      "payable": false,
      "stateMutability": "nonpayable",
      "type": "function"
    }
  ],
  "bytecode": "0x608060405234801561001057600080fd5b50604051610ebf380380610ebf83398101604052805160008054600160a060020a031916331781559101908190341561004857600080fd5b600061ffff821610156100e257604080517f08c379a000000000000000000000000000000000000000000000000000000000815260206004820152602b60248201527f76657273696f6e206d7573742062652067726561746572207468616e206f722060448201527f657175616c73207a65726f000000000000000000000000000000000000000000606482015290519081900360840190fd5b815160001061015257604080517f08c379a000000000000000000000000000000000000000000000000000000000815260206004820152601360248201527f6e616d652063616e6e6f74206265206e756c6c00000000000000000000000000604482015290519081900360640190fd5b6001805460a060020a60ff021916905581516101759060029060208501906101bb565b506003805461ffff90921661ffff1990921691909117905550506001805460a060020a60ff02191674010000000000000000000000000000000000000000179055610256565b828054600181600116156101000203166002900490600052602060002090601f016020900481019282601f106101fc57805160ff1916838001178555610229565b82800160010185558215610229579182015b8281111561022957825182559160200191906001019061020e565b50610235929150610239565b5090565b61025391905b80821115610235576000815560010161023f565b90565b610c5a806102656000396000f3006080604052600436106100b65763ffffffff60e060020a6000350416630d8e6e2c81146100fc57806317d7de7c1461012857806341c0e1b5146101b25780634e71e0c8146101c957806364da4e6f146101de5780636f338a2214610207578063715018a6146102385780638da5cb5b1461024d5780639ef80e12146102625780639f727c2714610283578063a46423ad14610298578063e30c3978146102b9578063f2fde38b146102ce578063fd8b2370146102ef575b3480156100c257600080fd5b5060035460405162010000909104600160a060020a03169036600082376000803683855af43d806000843e8180156100f8578184f35b8184fd5b34801561010857600080fd5b50610111610310565b6040805161ffff9092168252519081900360200190f35b34801561013457600080fd5b5061013d61031a565b6040805160208082528351818301528351919283929083019185019080838360005b8381101561017757818101518382015260200161015f565b50505050905090810190601f1680156101a45780820380516001836020036101000a031916815260200191505b509250505060405180910390f35b3480156101be57600080fd5b506101c76103ad565b005b3480156101d557600080fd5b506101c76103d2565b3480156101ea57600080fd5b506101f361045a565b604080519115158252519081900360200190f35b34801561021357600080fd5b5061021c61047b565b60408051600160a060020a039092168252519081900360200190f35b34801561024457600080fd5b506101c7610490565b34801561025957600080fd5b5061021c6104fc565b34801561026e57600080fd5b506101c7600160a060020a036004351661050b565b34801561028f57600080fd5b506101c76105e0565b3480156102a457600080fd5b506101c7600160a060020a0360043516610635565b3480156102c557600080fd5b5061021c610713565b3480156102da57600080fd5b506101c7600160a060020a0360043516610722565b3480156102fb57600080fd5b506101c7600160a060020a0360043516610768565b60035461ffff1690565b60028054604080516020601f60001961010060018716150201909416859004938401819004810282018101909252828152606093909290918301828280156103a35780601f10610378576101008083540402835291602001916103a3565b820191906000526020600020905b81548152906001019060200180831161038657829003601f168201915b5050505050905090565b600054600160a060020a031633146103c457600080fd5b600054600160a060020a0316ff5b600154600160a060020a031633146103e957600080fd5b60015460008054604051600160a060020a0393841693909116917f8be0079c531659141344cd1fd0a4f28419497f9722a3daafe3b4186f6b6457e091a3600180546000805473ffffffffffffffffffffffffffffffffffffffff19908116600160a060020a03841617909155169055565b60015474010000000000000000000000000000000000000000900460ff1690565b600354620100009004600160a060020a031690565b600054600160a060020a031633146104a757600080fd5b60008054604051600160a060020a03909116917ff8df31144d9c2f0f6b59d69b8b98abd5459d07f2742c4df920b25aae33c6482091a26000805473ffffffffffffffffffffffffffffffffffffffff19169055565b600054600160a060020a031681565b60008054600160a060020a0316331461052357600080fd5b600160a060020a0382161515610583576040805160e560020a62461bcd02815260206004820152601e60248201527f636f6e747261637420616464726573732063616e6e6f74206265203078300000604482015290519081900360640190fd5b81905080600160a060020a0316634e71e0c86040518163ffffffff1660e060020a028152600401600060405180830381600087803b1580156105c457600080fd5b505af11580156105d8573d6000803e3d6000fd5b505050505050565b600054600160a060020a031633146105f757600080fd5b60008054604051600160a060020a0390911691303180156108fc02929091818181858888f19350505050158015610632573d6000803e3d6000fd5b50565b60008054600160a060020a0316331461064d57600080fd5b600160a060020a03821615156106ad576040805160e560020a62461bcd02815260206004820152601e60248201527f636f6e747261637420616464726573732063616e6e6f74206265203078300000604482015290519081900360640190fd5b5060008054604080517ff2fde38b000000000000000000000000000000000000000000000000000000008152600160a060020a039283166004820152905184939284169263f2fde38b926024808201939182900301818387803b1580156105c457600080fd5b600154600160a060020a031681565b600054600160a060020a0316331461073957600080fd5b6001805473ffffffffffffffffffffffffffffffffffffffff1916600160a060020a0392909216919091179055565b6000600160a060020a03821615156107ca576040805160e560020a62461bcd02815260206004820152601e60248201527f636f6e747261637420616464726573732063616e6e6f74206265203078300000604482015290519081900360640190fd5b8190506002604051602001808280546001816001161561010002031660029004801561082d5780601f1061080b57610100808354040283529182019161082d565b820191906000526020600020905b815481529060010190602001808311610819575b50509150506040516020818303038152906040526040518082805190602001908083835b602083106108705780518252601f199092019160209182019101610851565b6001836020036101000a03801982511681845116808217855250505050505090500191505060405180910390206000191681600160a060020a03166317d7de7c6040518163ffffffff1660e060020a028152600401600060405180830381600087803b1580156108df57600080fd5b505af11580156108f3573d6000803e3d6000fd5b505050506040513d6000823e601f3d908101601f19168201604052602081101561091c57600080fd5b81019080805164010000000081111561093457600080fd5b8201602081018481111561094757600080fd5b815164010000000081118282018710171561096157600080fd5b50509291905050506040516020018082805190602001908083835b6020831061099b5780518252601f19909201916020918201910161097c565b6001836020036101000a0380198251168184511680821785525050505050509050019150506040516020818303038152906040526040518082805190602001908083835b602083106109fe5780518252601f1990920191602091820191016109df565b6001836020036101000a038019825116818451168082178552505050505050905001915050604051809103902060001916141515610a86576040805160e560020a62461bcd02815260206004820152601e60248201527f636f6e74726163742773206e616d65206d75737420626520657175616c730000604482015290519081900360640190fd5b600360009054906101000a900461ffff1661ffff1681600160a060020a0316630d8e6e2c6040518163ffffffff1660e060020a028152600401602060405180830381600087803b158015610ad957600080fd5b505af1158015610aed573d6000803e3d6000fd5b505050506040513d6020811015610b0357600080fd5b505161ffff1611610b84576040805160e560020a62461bcd02815260206004820152603660248201527f74617267657420636f6e747261637427732076657273696f6e206d757374206260448201527f652067726561746572207468616e2063757272656e7400000000000000000000606482015290519081900360840190fd5b81600360026101000a815481600160a060020a030219169083600160a060020a0316021790555080600160a060020a0316630d8e6e2c6040518163ffffffff1660e060020a028152600401602060405180830381600087803b158015610be957600080fd5b505af1158015610bfd573d6000803e3d6000fd5b505050506040513d6020811015610c1357600080fd5b50516003805461ffff191661ffff90921691909117905550505600a165627a7a72305820fc114f81919fe241485e31fe8e56d0b5b0e0209ee0b077d0812cc32376dcb9ff0029",
  "source": "pragma solidity ^0.4.23;\n\nimport \"./RayonBase.sol\";\n\ncontract RayonProxy is RayonBase {\n    address private targetAddress;\n\n    // constructor\n    constructor(string _name) RayonBase(_name, 0) public {\n        proxy = true;\n    }\n\n    function getTargetAddress() external view returns (address) {\n        return targetAddress;\n    }\n    function setTargetAddress(address _address) external {\n        require(_address != address(0), \"contract address cannot be 0x0\");\n        RayonBase targetContract = RayonBase(_address);\n        require(keccak256(abi.encodePacked(targetContract.getName())) == keccak256(abi.encodePacked(name)), \"contract's name must be equals\");\n        require(targetContract.getVersion() > version, \"target contract's version must be greater than current\");\n\n        targetAddress = _address;\n        version = targetContract.getVersion();\n    }\n\n    function () external {\n        address contractAddr = targetAddress;\n        assembly {\n            let ptr := mload(0x40)\n            calldatacopy(ptr, 0, calldatasize)\n            let result := delegatecall(gas, contractAddr, ptr, calldatasize, 0, 0)\n            let size := returndatasize\n            returndatacopy(ptr, 0, size)\n\n            switch result\n            case 0 { revert(ptr, size) }\n            default { return(ptr, size) }\n        }\n    }\n}",
  "sourcePath": "/Users/home/Desktop/rayon/rayonprotocol-contract-common/contracts/RayonProxy.sol",
  "compiler": {
    "name": "solc",
    "version": "0.4.24+commit.e67f0147.Emscripten.clang"
  },
  "schemaVersion": "2.0.0",
  "updatedAt": "2018-11-06T02:49:10.074Z"
}