{
  "contractName": "TestScoreV1",
  "abi": [
    {
      "constant": true,
      "inputs": [],
      "name": "getVersion",
      "outputs": [
        {
          "name": "",
          "type": "uint16"
        }
      ],
      "payable": false,
      "stateMutability": "view",
      "type": "function"
    },
    {
      "constant": true,
      "inputs": [],
      "name": "getName",
      "outputs": [
        {
          "name": "",
          "type": "string"
        }
      ],
      "payable": false,
      "stateMutability": "view",
      "type": "function"
    },
    {
      "constant": false,
      "inputs": [],
      "name": "kill",
      "outputs": [],
      "payable": false,
      "stateMutability": "nonpayable",
      "type": "function"
    },
    {
      "constant": false,
      "inputs": [],
      "name": "claimOwnership",
      "outputs": [],
      "payable": false,
      "stateMutability": "nonpayable",
      "type": "function"
    },
    {
      "constant": true,
      "inputs": [],
      "name": "isProxy",
      "outputs": [
        {
          "name": "",
          "type": "bool"
        }
      ],
      "payable": false,
      "stateMutability": "view",
      "type": "function"
    },
    {
      "constant": false,
      "inputs": [],
      "name": "renounceOwnership",
      "outputs": [],
      "payable": false,
      "stateMutability": "nonpayable",
      "type": "function"
    },
    {
      "constant": true,
      "inputs": [],
      "name": "owner",
      "outputs": [
        {
          "name": "",
          "type": "address"
        }
      ],
      "payable": false,
      "stateMutability": "view",
      "type": "function"
    },
    {
      "constant": false,
      "inputs": [
        {
          "name": "_contractAddr",
          "type": "address"
        }
      ],
      "name": "claimOwnershipContract",
      "outputs": [],
      "payable": false,
      "stateMutability": "nonpayable",
      "type": "function"
    },
    {
      "constant": false,
      "inputs": [],
      "name": "reclaimEther",
      "outputs": [],
      "payable": false,
      "stateMutability": "nonpayable",
      "type": "function"
    },
    {
      "constant": false,
      "inputs": [
        {
          "name": "_contractAddr",
          "type": "address"
        }
      ],
      "name": "reclaimOwnershipContract",
      "outputs": [],
      "payable": false,
      "stateMutability": "nonpayable",
      "type": "function"
    },
    {
      "constant": true,
      "inputs": [],
      "name": "pendingOwner",
      "outputs": [
        {
          "name": "",
          "type": "address"
        }
      ],
      "payable": false,
      "stateMutability": "view",
      "type": "function"
    },
    {
      "constant": false,
      "inputs": [
        {
          "name": "newOwner",
          "type": "address"
        }
      ],
      "name": "transferOwnership",
      "outputs": [],
      "payable": false,
      "stateMutability": "nonpayable",
      "type": "function"
    },
    {
      "inputs": [],
      "payable": false,
      "stateMutability": "nonpayable",
      "type": "constructor"
    },
    {
      "payable": false,
      "stateMutability": "nonpayable",
      "type": "fallback"
    },
    {
      "anonymous": false,
      "inputs": [
        {
          "indexed": true,
          "name": "previousOwner",
          "type": "address"
        }
      ],
      "name": "OwnershipRenounced",
      "type": "event"
    },
    {
      "anonymous": false,
      "inputs": [
        {
          "indexed": true,
          "name": "previousOwner",
          "type": "address"
        },
        {
          "indexed": true,
          "name": "newOwner",
          "type": "address"
        }
      ],
      "name": "OwnershipTransferred",
      "type": "event"
    },
    {
      "constant": false,
      "inputs": [],
      "name": "hitScore",
      "outputs": [],
      "payable": false,
      "stateMutability": "nonpayable",
      "type": "function"
    },
    {
      "constant": true,
      "inputs": [],
      "name": "getScore",
      "outputs": [
        {
          "name": "",
          "type": "uint256"
        }
      ],
      "payable": false,
      "stateMutability": "view",
      "type": "function"
    }
  ],
  "bytecode": "0x608060405234801561001057600080fd5b5060408051808201909152600981527f5465737453636f72650000000000000000000000000000000000000000000000602082015260008054600160a060020a031916331790556001341561006457600080fd5b600061ffff821610156100fe57604080517f08c379a000000000000000000000000000000000000000000000000000000000815260206004820152602b60248201527f76657273696f6e206d7573742062652067726561746572207468616e206f722060448201527f657175616c73207a65726f000000000000000000000000000000000000000000606482015290519081900360840190fd5b815160001061016e57604080517f08c379a000000000000000000000000000000000000000000000000000000000815260206004820152601360248201527f6e616d652063616e6e6f74206265206e756c6c00000000000000000000000000604482015290519081900360640190fd5b6001805460a060020a60ff021916905581516101919060029060208501906101ae565b506003805461ffff191661ffff9290921691909117905550610249565b828054600181600116156101000203166002900490600052602060002090601f016020900481019282601f106101ef57805160ff191683800117855561021c565b8280016001018555821561021c579182015b8281111561021c578251825591602001919060010190610201565b5061022892915061022c565b5090565b61024691905b808211156102285760008155600101610232565b90565b6107bf806102586000396000f3006080604052600436106100cf5763ffffffff7c01000000000000000000000000000000000000000000000000000000006000350416630d8e6e2c81146100de57806317d7de7c1461010a57806325b2abf51461019457806341c0e1b5146101ab5780634e71e0c8146101c057806364da4e6f146101d5578063715018a6146101fe5780638da5cb5b146102135780639ef80e12146102445780639f727c2714610265578063a46423ad1461027a578063afd820671461029b578063e30c3978146102c2578063f2fde38b146102d7575b3480156100db57600080fd5b50005b3480156100ea57600080fd5b506100f36102f8565b6040805161ffff9092168252519081900360200190f35b34801561011657600080fd5b5061011f610302565b6040805160208082528351818301528351919283929083019185019080838360005b83811015610159578181015183820152602001610141565b50505050905090810190601f1680156101865780820380516001836020036101000a031916815260200191505b509250505060405180910390f35b3480156101a057600080fd5b506101a9610395565b005b3480156101b757600080fd5b506101a96103a0565b3480156101cc57600080fd5b506101a96103c5565b3480156101e157600080fd5b506101ea61044d565b604080519115158252519081900360200190f35b34801561020a57600080fd5b506101a961046e565b34801561021f57600080fd5b506102286104da565b60408051600160a060020a039092168252519081900360200190f35b34801561025057600080fd5b506101a9600160a060020a03600435166104e9565b34801561027157600080fd5b506101a96105ee565b34801561028657600080fd5b506101a9600160a060020a0360043516610643565b3480156102a757600080fd5b506102b0610738565b60408051918252519081900360200190f35b3480156102ce57600080fd5b5061022861073e565b3480156102e357600080fd5b506101a9600160a060020a036004351661074d565b60035461ffff1690565b60028054604080516020601f600019610100600187161502019094168590049384018190048102820181019092528281526060939092909183018282801561038b5780601f106103605761010080835404028352916020019161038b565b820191906000526020600020905b81548152906001019060200180831161036e57829003601f168201915b5050505050905090565b60048054600a019055565b600054600160a060020a031633146103b757600080fd5b600054600160a060020a0316ff5b600154600160a060020a031633146103dc57600080fd5b60015460008054604051600160a060020a0393841693909116917f8be0079c531659141344cd1fd0a4f28419497f9722a3daafe3b4186f6b6457e091a3600180546000805473ffffffffffffffffffffffffffffffffffffffff19908116600160a060020a03841617909155169055565b60015474010000000000000000000000000000000000000000900460ff1690565b600054600160a060020a0316331461048557600080fd5b60008054604051600160a060020a03909116917ff8df31144d9c2f0f6b59d69b8b98abd5459d07f2742c4df920b25aae33c6482091a26000805473ffffffffffffffffffffffffffffffffffffffff19169055565b600054600160a060020a031681565b60008054600160a060020a0316331461050157600080fd5b600160a060020a038216151561057857604080517f08c379a000000000000000000000000000000000000000000000000000000000815260206004820152601e60248201527f636f6e747261637420616464726573732063616e6e6f74206265203078300000604482015290519081900360640190fd5b81905080600160a060020a0316634e71e0c86040518163ffffffff167c0100000000000000000000000000000000000000000000000000000000028152600401600060405180830381600087803b1580156105d257600080fd5b505af11580156105e6573d6000803e3d6000fd5b505050505050565b600054600160a060020a0316331461060557600080fd5b60008054604051600160a060020a0390911691303180156108fc02929091818181858888f19350505050158015610640573d6000803e3d6000fd5b50565b60008054600160a060020a0316331461065b57600080fd5b600160a060020a03821615156106d257604080517f08c379a000000000000000000000000000000000000000000000000000000000815260206004820152601e60248201527f636f6e747261637420616464726573732063616e6e6f74206265203078300000604482015290519081900360640190fd5b5060008054604080517ff2fde38b000000000000000000000000000000000000000000000000000000008152600160a060020a039283166004820152905184939284169263f2fde38b926024808201939182900301818387803b1580156105d257600080fd5b60045490565b600154600160a060020a031681565b600054600160a060020a0316331461076457600080fd5b6001805473ffffffffffffffffffffffffffffffffffffffff1916600160a060020a03929092169190911790555600a165627a7a72305820598c15df09f72330d968931de2e016b301bd37fba87c245e6cd6c95d899560dc0029",
  "source": "pragma solidity ^0.4.24;\n\nimport \"../../rayonprotocol-contract-common/contracts/RayonBase.sol\";\n\ncontract TestScoreV1 is RayonBase {\n    constructor() RayonBase(\"TestScore\", 1) public {}\n\n    uint256 internal score;\n\n    function hitScore() public {\n        score += 10;\n    }\n\n    function getScore() public view returns (uint256){\n        return score;\n    }\n}",
  "sourcePath": "/Users/home/Desktop/rayon/rayonprotocol-contract-registry/contracts/TestScoreV1.sol",
  "compiler": {
    "name": "solc",
    "version": "0.4.24+commit.e67f0147.Emscripten.clang"
  },
  "schemaVersion": "2.0.0",
  "updatedAt": "2018-11-06T02:49:19.541Z"
}