{
  "contractName": "Registry",
  "abi": [
    {
      "constant": true,
      "inputs": [],
      "name": "getVersion",
      "outputs": [
        {
          "name": "",
          "type": "uint16"
        }
      ],
      "payable": false,
      "stateMutability": "view",
      "type": "function"
    },
    {
      "constant": true,
      "inputs": [],
      "name": "getName",
      "outputs": [
        {
          "name": "",
          "type": "string"
        }
      ],
      "payable": false,
      "stateMutability": "view",
      "type": "function"
    },
    {
      "constant": false,
      "inputs": [],
      "name": "kill",
      "outputs": [],
      "payable": false,
      "stateMutability": "nonpayable",
      "type": "function"
    },
    {
      "constant": false,
      "inputs": [],
      "name": "claimOwnership",
      "outputs": [],
      "payable": false,
      "stateMutability": "nonpayable",
      "type": "function"
    },
    {
      "constant": true,
      "inputs": [],
      "name": "isProxy",
      "outputs": [
        {
          "name": "",
          "type": "bool"
        }
      ],
      "payable": false,
      "stateMutability": "view",
      "type": "function"
    },
    {
      "constant": false,
      "inputs": [],
      "name": "renounceOwnership",
      "outputs": [],
      "payable": false,
      "stateMutability": "nonpayable",
      "type": "function"
    },
    {
      "constant": true,
      "inputs": [],
      "name": "owner",
      "outputs": [
        {
          "name": "",
          "type": "address"
        }
      ],
      "payable": false,
      "stateMutability": "view",
      "type": "function"
    },
    {
      "constant": false,
      "inputs": [
        {
          "name": "_contractAddr",
          "type": "address"
        }
      ],
      "name": "claimOwnershipContract",
      "outputs": [],
      "payable": false,
      "stateMutability": "nonpayable",
      "type": "function"
    },
    {
      "constant": false,
      "inputs": [],
      "name": "reclaimEther",
      "outputs": [],
      "payable": false,
      "stateMutability": "nonpayable",
      "type": "function"
    },
    {
      "constant": false,
      "inputs": [
        {
          "name": "_contractAddr",
          "type": "address"
        }
      ],
      "name": "reclaimOwnershipContract",
      "outputs": [],
      "payable": false,
      "stateMutability": "nonpayable",
      "type": "function"
    },
    {
      "constant": true,
      "inputs": [],
      "name": "pendingOwner",
      "outputs": [
        {
          "name": "",
          "type": "address"
        }
      ],
      "payable": false,
      "stateMutability": "view",
      "type": "function"
    },
    {
      "constant": false,
      "inputs": [
        {
          "name": "newOwner",
          "type": "address"
        }
      ],
      "name": "transferOwnership",
      "outputs": [],
      "payable": false,
      "stateMutability": "nonpayable",
      "type": "function"
    },
    {
      "inputs": [
        {
          "name": "version",
          "type": "uint16"
        }
      ],
      "payable": false,
      "stateMutability": "nonpayable",
      "type": "constructor"
    },
    {
      "payable": false,
      "stateMutability": "nonpayable",
      "type": "fallback"
    },
    {
      "anonymous": false,
      "inputs": [
        {
          "indexed": false,
          "name": "name",
          "type": "string"
        },
        {
          "indexed": false,
          "name": "contractAddress",
          "type": "address"
        }
      ],
      "name": "LogContractRegistered",
      "type": "event"
    },
    {
      "anonymous": false,
      "inputs": [
        {
          "indexed": false,
          "name": "name",
          "type": "string"
        },
        {
          "indexed": false,
          "name": "contractAddress",
          "type": "address"
        },
        {
          "indexed": false,
          "name": "interfaceAddress",
          "type": "address"
        }
      ],
      "name": "LogContractUpgraded",
      "type": "event"
    },
    {
      "anonymous": false,
      "inputs": [
        {
          "indexed": false,
          "name": "name",
          "type": "string"
        }
      ],
      "name": "LogContractRemoved",
      "type": "event"
    },
    {
      "anonymous": false,
      "inputs": [
        {
          "indexed": true,
          "name": "previousOwner",
          "type": "address"
        }
      ],
      "name": "OwnershipRenounced",
      "type": "event"
    },
    {
      "anonymous": false,
      "inputs": [
        {
          "indexed": true,
          "name": "previousOwner",
          "type": "address"
        },
        {
          "indexed": true,
          "name": "newOwner",
          "type": "address"
        }
      ],
      "name": "OwnershipTransferred",
      "type": "event"
    },
    {
      "constant": true,
      "inputs": [
        {
          "name": "_contractAddress",
          "type": "address"
        }
      ],
      "name": "getContractInfo",
      "outputs": [
        {
          "name": "",
          "type": "string"
        },
        {
          "name": "",
          "type": "uint16"
        },
        {
          "name": "",
          "type": "bool"
        }
      ],
      "payable": false,
      "stateMutability": "view",
      "type": "function"
    },
    {
      "constant": false,
      "inputs": [
        {
          "name": "_proxyAddress",
          "type": "address"
        },
        {
          "name": "_blockNumber",
          "type": "uint256"
        }
      ],
      "name": "register",
      "outputs": [],
      "payable": false,
      "stateMutability": "nonpayable",
      "type": "function"
    },
    {
      "constant": false,
      "inputs": [
        {
          "name": "_tokenContractAddress",
          "type": "address"
        },
        {
          "name": "_version",
          "type": "uint16"
        },
        {
          "name": "_blockNumber",
          "type": "uint256"
        }
      ],
      "name": "registerToken",
      "outputs": [],
      "payable": false,
      "stateMutability": "nonpayable",
      "type": "function"
    },
    {
      "constant": false,
      "inputs": [
        {
          "name": "_contractAddress",
          "type": "address"
        }
      ],
      "name": "upgrade",
      "outputs": [],
      "payable": false,
      "stateMutability": "nonpayable",
      "type": "function"
    },
    {
      "constant": false,
      "inputs": [
        {
          "name": "_contractAddressList",
          "type": "address[]"
        }
      ],
      "name": "upgradeAll",
      "outputs": [],
      "payable": false,
      "stateMutability": "nonpayable",
      "type": "function"
    },
    {
      "constant": false,
      "inputs": [
        {
          "name": "_name",
          "type": "string"
        }
      ],
      "name": "remove",
      "outputs": [],
      "payable": false,
      "stateMutability": "nonpayable",
      "type": "function"
    },
    {
      "constant": true,
      "inputs": [
        {
          "name": "_name",
          "type": "string"
        }
      ],
      "name": "getRegistryInfo",
      "outputs": [
        {
          "name": "",
          "type": "string"
        },
        {
          "name": "",
          "type": "address"
        },
        {
          "name": "",
          "type": "address"
        },
        {
          "name": "",
          "type": "uint16"
        },
        {
          "name": "",
          "type": "uint256"
        },
        {
          "name": "",
          "type": "uint256"
        }
      ],
      "payable": false,
      "stateMutability": "view",
      "type": "function"
    },
    {
      "constant": true,
      "inputs": [
        {
          "name": "_index",
          "type": "uint256"
        }
      ],
      "name": "getRegistryInfoByIndex",
      "outputs": [
        {
          "name": "",
          "type": "string"
        },
        {
          "name": "",
          "type": "address"
        },
        {
          "name": "",
          "type": "address"
        },
        {
          "name": "",
          "type": "uint16"
        },
        {
          "name": "",
          "type": "uint256"
        },
        {
          "name": "",
          "type": "uint256"
        }
      ],
      "payable": false,
      "stateMutability": "view",
      "type": "function"
    },
    {
      "constant": true,
      "inputs": [
        {
          "name": "_name",
          "type": "string"
        }
      ],
      "name": "contains",
      "outputs": [
        {
          "name": "",
          "type": "bool"
        }
      ],
      "payable": false,
      "stateMutability": "view",
      "type": "function"
    },
    {
      "constant": true,
      "inputs": [],
      "name": "size",
      "outputs": [
        {
          "name": "",
          "type": "uint256"
        }
      ],
      "payable": false,
      "stateMutability": "view",
      "type": "function"
    }
  ],
  "bytecode": "0x60806040523480156200001157600080fd5b5060405160208062002ad78339810160408181529151828201909252600881527f5265676973747279000000000000000000000000000000000000000000000000602082015260008054600160a060020a031916331790558134156200007657600080fd5b600061ffff821610156200011157604080517f08c379a000000000000000000000000000000000000000000000000000000000815260206004820152602b60248201527f76657273696f6e206d7573742062652067726561746572207468616e206f722060448201527f657175616c73207a65726f000000000000000000000000000000000000000000606482015290519081900360840190fd5b81516000106200018257604080517f08c379a000000000000000000000000000000000000000000000000000000000815260206004820152601360248201527f6e616d652063616e6e6f74206265206e756c6c00000000000000000000000000604482015290519081900360640190fd5b6001805460a060020a60ff02191690558151620001a7906002906020850190620001c7565b506003805461ffff191661ffff92909216919091179055506200026c9050565b828054600181600116156101000203166002900490600052602060002090601f016020900481019282601f106200020a57805160ff19168380011785556200023a565b828001600101855582156200023a579182015b828111156200023a5782518255916020019190600101906200021d565b50620002489291506200024c565b5090565b6200026991905b8082111562000248576000815560010162000253565b90565b61285b806200027c6000396000f30060806040526004361061010e5763ffffffff60e060020a60003504166306fb5390811461011d5780630900f010146101fc5780630d8e6e2c1461021f57806317d7de7c1461024b57806326ea60b5146102d557806341c0e1b51461032e5780634e71e0c81461034357806364da4e6f146103585780636833d54f146103815780636890aca9146103da578063692a7c89146104055780636d705ebb1461045a578063715018a61461047e57806380599e4b146104935780638da5cb5b146104ec578063949d225d1461051d5780639ef80e12146105445780639f727c2714610565578063a46423ad1461057a578063cd481e511461059b578063e30c39781461064e578063f2fde38b14610663575b34801561011a57600080fd5b50005b34801561012957600080fd5b50610135600435610684565b604051808060200187600160a060020a0316600160a060020a0316815260200186600160a060020a0316600160a060020a031681526020018561ffff1661ffff168152602001848152602001838152602001828103825288818151815260200191508051906020019080838360005b838110156101bc5781810151838201526020016101a4565b50505050905090810190601f1680156101e95780820380516001836020036101000a031916815260200191505b5097505050505050505060405180910390f35b34801561020857600080fd5b5061021d600160a060020a03600435166107ca565b005b34801561022b57600080fd5b50610234610e78565b6040805161ffff9092168252519081900360200190f35b34801561025757600080fd5b50610260610e83565b6040805160208082528351818301528351919283929083019185019080838360005b8381101561029a578181015183820152602001610282565b50505050905090810190601f1680156102c75780820380516001836020036101000a031916815260200191505b509250505060405180910390f35b3480156102e157600080fd5b506040805160206004803580820135601f8101849004840285018401909552848452610135943694929360249392840191908190840183828082843750949750610f169650505050505050565b34801561033a57600080fd5b5061021d61112a565b34801561034f57600080fd5b5061021d61114f565b34801561036457600080fd5b5061036d6111d7565b604080519115158252519081900360200190f35b34801561038d57600080fd5b506040805160206004803580820135601f810184900484028501840190955284845261036d9436949293602493928401919081908401838280828437509497506111e79650505050505050565b3480156103e657600080fd5b5061021d600160a060020a036004351661ffff602435166044356112c9565b34801561041157600080fd5b506040805160206004803580820135838102808601850190965280855261021d953695939460249493850192918291850190849080828437509497506116029650505050505050565b34801561046657600080fd5b5061021d600160a060020a036004351660243561164f565b34801561048a57600080fd5b5061021d6119f5565b34801561049f57600080fd5b506040805160206004803580820135601f810184900484028501840190955284845261021d943694929360249392840191908190840183828082843750949750611a619650505050505050565b3480156104f857600080fd5b50610501611f81565b60408051600160a060020a039092168252519081900360200190f35b34801561052957600080fd5b50610532611f90565b60408051918252519081900360200190f35b34801561055057600080fd5b5061021d600160a060020a0360043516611faf565b34801561057157600080fd5b5061021d612072565b34801561058657600080fd5b5061021d600160a060020a03600435166120c7565b3480156105a757600080fd5b506105bc600160a060020a0360043516612193565b60405180806020018461ffff1661ffff16815260200183151515158152602001828103825285818151815260200191508051906020019080838360005b838110156106115781810151838201526020016105f9565b50505050905090810190601f16801561063e5780820380516001836020036101000a031916815260200191505b5094505050505060405180910390f35b34801561065a57600080fd5b506105016123b1565b34801561066f57600080fd5b5061021d600160a060020a03600435166123c0565b600080546060919081908190819081908690600160a060020a031633146106aa57600080fd5b6106b388612406565b1515610709576040805160e560020a62461bcd02815260206004820152601660248201527f696e646578206d75737420626520696e2072616e676500000000000000000000604482015290519081900360640190fd5b600580548990811061071757fe5b600091825260209182902001805460408051601f60026000196101006001871615020190941693909304928301859004850281018501909152818152928301828280156107a55780601f1061077a576101008083540402835291602001916107a5565b820191906000526020600020905b81548152906001019060200180831161078857829003601f168201915b505050505090506107b581610f16565b949d939c50919a509850965090945092505050565b600080546060908290819081908190600160a060020a031633146107ed57600080fd5b600160a060020a038716151561083b576040805160e560020a62461bcd02815260206004820152601e6024820152600080516020612810833981519152604482015290519081900360640190fd5b86955085600160a060020a03166364da4e6f6040518163ffffffff1660e060020a028152600401602060405180830381600087803b15801561087c57600080fd5b505af1158015610890573d6000803e3d6000fd5b505050506040513d60208110156108a657600080fd5b505115610923576040805160e560020a62461bcd02815260206004820152602660248201527f636f6e74726163742063616e6e6f74206265205261796f6e50726f787920636f60448201527f6e74726163740000000000000000000000000000000000000000000000000000606482015290519081900360840190fd5b85600160a060020a03166317d7de7c6040518163ffffffff1660e060020a028152600401600060405180830381600087803b15801561096157600080fd5b505af1158015610975573d6000803e3d6000fd5b505050506040513d6000823e601f3d908101601f19168201604052602081101561099e57600080fd5b8101908080516401000000008111156109b657600080fd5b820160208101848111156109c957600080fd5b81516401000000008111828201871017156109e357600080fd5b5050929190505050945085600160a060020a0316630d8e6e2c6040518163ffffffff1660e060020a028152600401602060405180830381600087803b158015610a2b57600080fd5b505af1158015610a3f573d6000803e3d6000fd5b505050506040513d6020811015610a5557600080fd5b50516040518651919550600491879190819060208401908083835b60208310610a8f5780518252601f199092019160209182019101610a70565b518151602093840361010090810a600019908101801990941693909216929092179092529290940196875260408051978890038201882060e0890182528054895260018082018054845160029382161590970290980190971604601f81018490048402850184019092528184529a50610bb59796508a95508682019492935090830182828015610b605780601f10610b3557610100808354040283529160200191610b60565b820191906000526020600020905b815481529060010190602001808311610b4357829003601f168201915b50505091835250506002820154600160a060020a0390811660208301526003830154908116604083015260a060020a900461ffff1660608201526004820154608082015260059091015460a09091015261241f565b1515610c0b576040805160e560020a62461bcd02815260206004820152601760248201527f636f6e7472616374206d75737420626520696e206d6170000000000000000000604482015290519081900360640190fd5b505060028101546003820154600160a060020a0390911690819061ffff60a060020a909104811690851611610cd6576040805160e560020a62461bcd02815260206004820152604360248201527f636f6e747261637427732076657273696f6e20746f207265676973746572206d60448201527f7573742062652067726561746572207468616e2063757272656e74207665727360648201527f696f6e0000000000000000000000000000000000000000000000000000000000608482015290519081900360a40190fd5b60038301805473ffffffffffffffffffffffffffffffffffffffff1916600160a060020a0389811691821775ffff0000000000000000000000000000000000000000191660a060020a61ffff89160217909255426005860155604080517ffd8b23700000000000000000000000000000000000000000000000000000000081526004810192909252519183169163fd8b23709160248082019260009290919082900301818387803b158015610d8a57600080fd5b505af1158015610d9e573d6000803e3d6000fd5b505050507fd53a6229bc8c58108f4081f4ff239ce2ef08d871ab2757d553001c0e29897cbb858389604051808060200184600160a060020a0316600160a060020a0316815260200183600160a060020a0316600160a060020a03168152602001828103825285818151815260200191508051906020019080838360005b83811015610e33578181015183820152602001610e1b565b50505050905090810190601f168015610e605780820380516001836020036101000a031916815260200191505b5094505050505060405180910390a150505050505050565b60035461ffff165b90565b60028054604080516020601f6000196101006001871615020190941685900493840181900481028201810190925282815260609390929091830182828015610f0c5780601f10610ee157610100808354040283529160200191610f0c565b820191906000526020600020905b815481529060010190602001808311610eef57829003601f168201915b5050505050905090565b60606000806000806000806004886040518082805190602001908083835b60208310610f535780518252601f199092019160209182019101610f34565b518151602093840361010090810a600019908101801990941693909216929092179092529290940196875260408051978890038201882060e0890182528054895260018082018054845160029382161590970290980190971604601f81018490048402850184019092528184529850610ff99796508895508682019492935090830182828015610b605780601f10610b3557610100808354040283529160200191610b60565b151561104f576040805160e560020a62461bcd02815260206004820152601f60248201527f636f6e7472616374206d7573742062652070726573656e7420696e206d617000604482015290519081900360640190fd5b6002818101546003830154600484015460058501546001808701805460408051602061010095841615959095026000190190921698909804601f81018490048402820184019098528781529096600160a060020a039687169686169560a060020a900461ffff1694939288919083018282801561110d5780601f106110e25761010080835404028352916020019161110d565b820191906000526020600020905b8154815290600101906020018083116110f057829003601f168201915b505050505095509650965096509650965096505091939550919395565b600054600160a060020a0316331461114157600080fd5b600054600160a060020a0316ff5b600154600160a060020a0316331461116657600080fd5b60015460008054604051600160a060020a0393841693909116917f8be0079c531659141344cd1fd0a4f28419497f9722a3daafe3b4186f6b6457e091a3600180546000805473ffffffffffffffffffffffffffffffffffffffff19908116600160a060020a03841617909155169055565b60015460a060020a900460ff1690565b6000806004836040518082805190602001908083835b6020831061121c5780518252601f1990920191602091820191016111fd565b518151602093840361010090810a600019908101801990941693909216929092179092529290940196875260408051978890038201882060e0890182528054895260018082018054845160029382161590970290980190971604601f810184900484028501840190925281845298506112c29796508895508682019492935090830182828015610b605780601f10610b3557610100808354040283529160200191610b60565b9392505050565b60008054606090600160a060020a031633146112e457600080fd5b600160a060020a0385161515611332576040805160e560020a62461bcd02815260206004820152601e6024820152600080516020612810833981519152604482015290519081900360640190fd5b84915060405160200180807f52594e000000000000000000000000000000000000000000000000000000000081525060030190506040516020818303038152906040526040518082805190602001908083835b602083106113a45780518252601f199092019160209182019101611385565b6001836020036101000a03801982511681845116808217855250505050505090500191505060405180910390206000191682600160a060020a03166395d89b416040518163ffffffff1660e060020a028152600401600060405180830381600087803b15801561141357600080fd5b505af1158015611427573d6000803e3d6000fd5b505050506040513d6000823e601f3d908101601f19168201604052602081101561145057600080fd5b81019080805164010000000081111561146857600080fd5b8201602081018481111561147b57600080fd5b815164010000000081118282018710171561149557600080fd5b50509291905050506040516020018082805190602001908083835b602083106114cf5780518252601f1990920191602091820191016114b0565b6001836020036101000a0380198251168184511680821785525050505050509050019150506040516020818303038152906040526040518082805190602001908083835b602083106115325780518252601f199092019160209182019101611513565b6001836020036101000a0380198251168184511680821785525050505050509050019150506040518091039020600019161415156115ba576040805160e560020a62461bcd02815260206004820152601c60248201527f636865636b696e67205261796f6e546f6b656e27732073796d626f6c00000000604482015290519081900360640190fd5b5060408051808201909152600a81527f5261796f6e546f6b656e0000000000000000000000000000000000000000000060208201526115fb81868686612445565b5050505050565b60008054600160a060020a0316331461161a57600080fd5b815181101561164b57611643828281518110151561163457fe5b906020019060200201516107ca565b60010161161a565b5050565b600080546060908290600160a060020a0316331461166c57600080fd5b600160a060020a03851615156116ba576040805160e560020a62461bcd02815260206004820152601e6024820152600080516020612810833981519152604482015290519081900360640190fd5b831515611711576040805160e560020a62461bcd02815260206004820152601760248201527f626c6f636b4e756d6265722063616e6e6f742062652030000000000000000000604482015290519081900360640190fd5b84925082600160a060020a03166364da4e6f6040518163ffffffff1660e060020a028152600401602060405180830381600087803b15801561175257600080fd5b505af1158015611766573d6000803e3d6000fd5b505050506040513d602081101561177c57600080fd5b505115156117f9576040805160e560020a62461bcd028152602060048201526024808201527f636f6e7472616374206d757374206265205261796f6e50726f787920636f6e7460448201527f7261637400000000000000000000000000000000000000000000000000000000606482015290519081900360840190fd5b82600160a060020a03166317d7de7c6040518163ffffffff1660e060020a028152600401600060405180830381600087803b15801561183757600080fd5b505af115801561184b573d6000803e3d6000fd5b505050506040513d6000823e601f3d908101601f19168201604052602081101561187457600080fd5b81019080805164010000000081111561188c57600080fd5b8201602081018481111561189f57600080fd5b81516401000000008111828201871017156118b957600080fd5b5050929190505050915082600160a060020a0316630d8e6e2c6040518163ffffffff1660e060020a028152600401602060405180830381600087803b15801561190157600080fd5b505af1158015611915573d6000803e3d6000fd5b505050506040513d602081101561192b57600080fd5b5051905061193b82868387612445565b7f199d94615702b19c818c33b06640036dfbe1474daac0ea6a8f869d44318daf8e8286604051808060200183600160a060020a0316600160a060020a03168152602001828103825284818151815260200191508051906020019080838360005b838110156119b357818101518382015260200161199b565b50505050905090810190601f1680156119e05780820380516001836020036101000a031916815260200191505b50935050505060405180910390a15050505050565b600054600160a060020a03163314611a0c57600080fd5b60008054604051600160a060020a03909116917ff8df31144d9c2f0f6b59d69b8b98abd5459d07f2742c4df920b25aae33c6482091a26000805473ffffffffffffffffffffffffffffffffffffffff19169055565b60008054606090829081908390600160a060020a03163314611a8257600080fd5b6004866040518082805190602001908083835b60208310611ab45780518252601f199092019160209182019101611a95565b518151602093840361010090810a600019908101801990941693909216929092179092529290940196875260408051978890038201882060e0890182528054895260018082018054845160029382161590970290980190971604601f81018490048402850184019092528184529c50611b5a9796508c95508682019492935090830182828015610b605780601f10610b3557610100808354040283529160200191610b60565b1515611bb0576040805160e560020a62461bcd02815260206004820152601f60248201527f636f6e7472616374206d7573742062652070726573656e7420696e206d617000604482015290519081900360640190fd5b8454611bbb90612406565b1515611c11576040805160e560020a62461bcd02815260206004820152601660248201527f696e646578206d75737420626520696e2072616e676500000000000000000000604482015290519081900360640190fd5b60018581018054604080516020600295841615610100026000190190931694909404601f810183900483028501830190915280845290830182828015611c985780601f10611c6d57610100808354040283529160200191611c98565b820191906000526020600020905b815481529060010190602001808311611c7b57829003601f168201915b5050885460058054959950909750600019850196509386935083109150611cbd905057fe5b600091825260209182902001805460408051601f6002600019610100600187161502019094169390930492830185900485028101850190915281815292830182828015611d4b5780601f10611d2057610100808354040283529160200191611d4b565b820191906000526020600020905b815481529060010190602001808311611d2e57829003601f168201915b50505050509050826004826040518082805190602001908083835b60208310611d855780518252601f199092019160209182019101611d66565b51815160209384036101000a600019018019909216911617905292019485525060405193849003019092209290925550506005805483908110611dc457fe5b90600052602060002001600584815481101515611ddd57fe5b906000526020600020019080546001816001161561010002031660029004611e06929190612672565b506005805490611e1a9060001983016126f7565b506004846040518082805190602001908083835b60208310611e4d5780518252601f199092019160209182019101611e2e565b51815160209384036101000a6000190180199092169116179052920194855250604051938490030190922060008082559092509050611e8f6001830182612720565b5060028101805473ffffffffffffffffffffffffffffffffffffffff1916905560038101805475ffffffffffffffffffffffffffffffffffffffffffff19169055600060048201819055600590910181905560408051602080825287518183015287517fdddcc4d7b053f2e13817736230cc53befe194eb4097f986de023d8d9279f7366948994849390840192908601918190849084905b83811015611f3f578181015183820152602001611f27565b50505050905090810190601f168015611f6c5780820380516001836020036101000a031916815260200191505b509250505060405180910390a1505050505050565b600054600160a060020a031681565b60008054600160a060020a03163314611fa857600080fd5b5060055490565b60008054600160a060020a03163314611fc757600080fd5b600160a060020a0382161515612015576040805160e560020a62461bcd02815260206004820152601e6024820152600080516020612810833981519152604482015290519081900360640190fd5b81905080600160a060020a0316634e71e0c86040518163ffffffff1660e060020a028152600401600060405180830381600087803b15801561205657600080fd5b505af115801561206a573d6000803e3d6000fd5b505050505050565b600054600160a060020a0316331461208957600080fd5b60008054604051600160a060020a0390911691303180156108fc02929091818181858888f193505050501580156120c4573d6000803e3d6000fd5b50565b60008054600160a060020a031633146120df57600080fd5b600160a060020a038216151561212d576040805160e560020a62461bcd02815260206004820152601e6024820152600080516020612810833981519152604482015290519081900360640190fd5b5060008054604080517ff2fde38b000000000000000000000000000000000000000000000000000000008152600160a060020a039283166004820152905184939284169263f2fde38b926024808201939182900301818387803b15801561205657600080fd5b606060008080600160a060020a03851615156121e7576040805160e560020a62461bcd02815260206004820152601e6024820152600080516020612810833981519152604482015290519081900360640190fd5b84905080600160a060020a03166317d7de7c6040518163ffffffff1660e060020a028152600401600060405180830381600087803b15801561222857600080fd5b505af115801561223c573d6000803e3d6000fd5b505050506040513d6000823e601f3d908101601f19168201604052602081101561226557600080fd5b81019080805164010000000081111561227d57600080fd5b8201602081018481111561229057600080fd5b81516401000000008111828201871017156122aa57600080fd5b505092919050505081600160a060020a0316630d8e6e2c6040518163ffffffff1660e060020a028152600401602060405180830381600087803b1580156122f057600080fd5b505af1158015612304573d6000803e3d6000fd5b505050506040513d602081101561231a57600080fd5b5051604080517f64da4e6f0000000000000000000000000000000000000000000000000000000081529051600160a060020a038516916364da4e6f9160048083019260209291908290030181600087803b15801561237757600080fd5b505af115801561238b573d6000803e3d6000fd5b505050506040513d60208110156123a157600080fd5b5051919790965090945092505050565b600154600160a060020a031681565b600054600160a060020a031633146123d757600080fd5b6001805473ffffffffffffffffffffffffffffffffffffffff1916600160a060020a0392909216919091179055565b6000808210158015612419575060055482105b92915050565b6040810151600090600160a060020a031615801590612419575050602001515160001090565b60006004856040518082805190602001908083835b602083106124795780518252601f19909201916020918201910161245a565b518151602093840361010090810a600019908101801990941693909216929092179092529290940196875260408051978890038201882060e0890182528054895260018082018054845160029382161590970290980190971604601f8101849004840285018401909252818452985061251f9796508895508682019492935090830182828015610b605780601f10610b3557610100808354040283529160200191610b60565b1561259a576040805160e560020a62461bcd02815260206004820152602260248201527f70726f787920746f2072656769737465722063616e6e6f7420626520696e206d60448201527f6170000000000000000000000000000000000000000000000000000000000000606482015290519081900360840190fd5b60058054600181810180845560009390935287519092916125e4917f036b6384b5eca791c62761152d0c79bb0604c104a5fb6f4eb0703f3154bb3db09091019060208a0190612764565b5003815584516125fd9060018301906020880190612764565b50600281018054600160a060020a0390951673ffffffffffffffffffffffffffffffffffffffff199095169490941790935560038301805461ffff90931660a060020a0275ffffffffffffffffffffffffffffffffffffffffffff199093169290921790915560048201554260059091015550565b828054600181600116156101000203166002900490600052602060002090601f016020900481019282601f106126ab57805485556126e7565b828001600101855582156126e757600052602060002091601f016020900482015b828111156126e75782548255916001019190600101906126cc565b506126f39291506127d2565b5090565b81548183558181111561271b5760008381526020902061271b9181019083016127ec565b505050565b50805460018160011615610100020316600290046000825580601f1061274657506120c4565b601f0160209004906000526020600020908101906120c491906127d2565b828054600181600116156101000203166002900490600052602060002090601f016020900481019282601f106127a557805160ff19168380011785556126e7565b828001600101855582156126e7579182015b828111156126e75782518255916020019190600101906127b7565b610e8091905b808211156126f357600081556001016127d8565b610e8091905b808211156126f35760006128068282612720565b506001016127f25600636f6e747261637420616464726573732063616e6e6f74206265203078300000a165627a7a723058207737a3e246e3b226c328511d242ff0e03e3d01321dc8d23edf0536c7ebca6be90029",
  "source": "pragma solidity ^0.4.24;\n\nimport \"../../rayonprotocol-contract-common/contracts/RayonBase.sol\";\nimport \"../../rayonprotocol-contract-common/contracts/RayonProxy.sol\";\nimport \"../../rayonprotocol-ico/contracts/RayonToken.sol\";\n\ncontract Registry is RayonBase {\n    struct RegistryEntry {\n        uint256 index;\n        string name;\n        address contractAddress;\n        address interfaceAddress;\n        uint16 version;\n        uint256 blockNumber;\n        uint256 updatedTime;\n    }\n\n    mapping(string => RegistryEntry) internal entryMap;\n    // mapping(string => mapping(uint16 => RegistryEntry)) internal contractVersionMap;\n    string[] internal contractNameList;\n\n    // Event defination\n    event LogContractRegistered(string name, address contractAddress);\n    event LogContractUpgraded(string name, address contractAddress, address interfaceAddress);\n    event LogContractRemoved(string name);\n\n    constructor(uint16 version) RayonBase(\"Registry\", version) public {}\n\n    function getContractInfo(address _contractAddress) public view returns(string, uint16, bool){\n        require(_contractAddress != address(0), \"contract address cannot be 0x0\");\n        RayonBase rayonContract = RayonBase(_contractAddress);\n        return (rayonContract.getName(), rayonContract.getVersion(), rayonContract.isProxy());\n    }\n\n    function _addRegistryEntry(string memory _name, address _contractAddress, uint16 _version, uint256 _blockNumber) private {\n        RegistryEntry storage entry = entryMap[_name];\n        require(!_contains(entry), \"proxy to register cannot be in map\");\n\n        entry.index = contractNameList.push(_name) - 1;\n        entry.name = _name;\n        entry.contractAddress = _contractAddress;\n        entry.interfaceAddress = address(0);\n        entry.version = _version;\n        entry.blockNumber = _blockNumber;\n        entry.updatedTime = now;\n    }\n\n    function register(address _proxyAddress, uint256 _blockNumber) public onlyOwner {\n        require(_proxyAddress != address(0), \"contract address cannot be 0x0\");\n        require(_blockNumber != 0, \"blockNumber cannot be 0\");\n        RayonProxy rayonProxy = RayonProxy(_proxyAddress);\n        require(rayonProxy.isProxy(), \"contract must be RayonProxy contract\");\n        // require(rayonProxy.getVersion() == 0, \"proxy's version must be 0\");\n\n        string memory name = rayonProxy.getName();\n        uint16 version = rayonProxy.getVersion();\n\n        _addRegistryEntry(name, _proxyAddress, version, _blockNumber);\n\n        // event\n        emit LogContractRegistered(name, _proxyAddress);\n    }\n\n    function registerToken(address _tokenContractAddress, uint16 _version, uint256 _blockNumber) public onlyOwner {\n        require(_tokenContractAddress != address(0), \"contract address cannot be 0x0\");\n        RayonToken rayonTokenContract = RayonToken(_tokenContractAddress);\n        require(keccak256(abi.encodePacked(rayonTokenContract.symbol())) == keccak256(abi.encodePacked(\"RYN\")), \"checking RayonToken's symbol\");\n        string memory name = \"RayonToken\";\n\n        _addRegistryEntry(name, _tokenContractAddress, _version, _blockNumber);\n    }\n\n    function upgrade(address _contractAddress) public onlyOwner {\n        require(_contractAddress != address(0), \"contract address cannot be 0x0\");\n        RayonBase rayonContract = RayonBase(_contractAddress);\n        require(!rayonContract.isProxy(), \"contract cannot be RayonProxy contract\");\n\n        string memory name = rayonContract.getName();\n        uint16 version = rayonContract.getVersion();\n\n        // RegisterEntry\n        RegistryEntry storage entry = entryMap[name];\n        require(_contains(entry), \"contract must be in map\");\n\n        address proxyAddress = entry.contractAddress;\n        RayonProxy rayonProxy = RayonProxy(proxyAddress);\n        require(version > entry.version, \"contract's version to register must be greater than current version\");\n\n        entry.interfaceAddress = _contractAddress;\n        entry.version = version;\n        entry.updatedTime = now;\n\n        // proxy upgrade target contract\n        rayonProxy.setTargetAddress(_contractAddress);\n\n        // event\n        emit LogContractUpgraded(name, proxyAddress, _contractAddress);\n    }\n\n    function upgradeAll(address[] _contractAddressList) public onlyOwner {\n        for(uint i; i<_contractAddressList.length; i++){\n            upgrade(_contractAddressList[i]);\n        }\n    }\n\n    function remove(string memory _name) public onlyOwner {\n        RegistryEntry storage entry = entryMap[_name];\n        require(_contains(entry), \"contract must be present in map\");\n        require(_isInRange(entry.index), \"index must be in range\");\n        string memory deleteEntryName = entry.name;\n        uint256 deleteEntryIndex = entry.index;\n\n        // Move last element into the delete key slot.\n        uint256 lastEntryIndex = contractNameList.length - 1;\n        string memory lastEntryName = contractNameList[lastEntryIndex];\n        entryMap[lastEntryName].index = deleteEntryIndex; // entryMap\n        contractNameList[deleteEntryIndex] = contractNameList[lastEntryIndex]; // contractNameList\n        contractNameList.length--;\n        delete entryMap[deleteEntryName];\n\n        // event\n        emit LogContractRemoved(deleteEntryName);\n    }\n\n    function getRegistryInfo(string memory _name) public view returns (string, address, address, uint16, uint256, uint256) {\n        RegistryEntry storage entry = entryMap[_name];\n        require(_contains(entry), \"contract must be present in map\");\n        return (entry.name, entry.contractAddress, entry.interfaceAddress, entry.version, entry.blockNumber, entry.updatedTime);\n    }\n\n    function getRegistryInfoByIndex(uint _index) public view onlyOwner returns (string, address, address, uint16, uint256, uint256) {\n        require(_isInRange(_index), \"index must be in range\");\n\n        string memory name = contractNameList[_index];\n        return getRegistryInfo(name);\n    }\n\n    function contains(string memory _name) public view returns (bool) {\n        RegistryEntry storage entry = entryMap[_name];\n        return _contains(entry);\n    }\n\n    function size() public view onlyOwner returns (uint) {\n        return contractNameList.length;\n    }\n\n    function _isInRange(uint256 _index) private view returns (bool) {\n        return (_index >= 0) && (_index < contractNameList.length);\n    }\n\n    function _contains(RegistryEntry memory _entry) private pure returns (bool){\n        return (_entry.contractAddress != address(0)) && (bytes(_entry.name).length > 0);\n    }\n}",
  "sourcePath": "/Users/home/Desktop/rayon/rayonprotocol-contract-registry/contracts/Registry.sol",
  "compiler": {
    "name": "solc",
    "version": "0.4.24+commit.e67f0147.Emscripten.clang"
  },
  "schemaVersion": "2.0.0",
  "updatedAt": "2018-11-05T10:00:11.387Z"
}